{
  "contractName": "Game",
  "abi": [
    {
      "constant": false,
      "inputs": [],
      "name": "withdraw",
      "outputs": [],
      "payable": false,
      "stateMutability": "nonpayable",
      "type": "function"
    },
    {
      "constant": false,
      "inputs": [
        {
          "name": "plN",
          "type": "uint256"
        },
        {
          "name": "betV",
          "type": "uint256"
        }
      ],
      "name": "InitializeSession",
      "outputs": [],
      "payable": false,
      "stateMutability": "nonpayable",
      "type": "function"
    },
    {
      "constant": true,
      "inputs": [],
      "name": "owner",
      "outputs": [
        {
          "name": "",
          "type": "address"
        }
      ],
      "payable": false,
      "stateMutability": "view",
      "type": "function"
    },
    {
      "constant": false,
      "inputs": [
        {
          "name": "id",
          "type": "uint256"
        }
      ],
      "name": "EnterSession",
      "outputs": [],
      "payable": true,
      "stateMutability": "payable",
      "type": "function"
    },
    {
      "inputs": [],
      "payable": false,
      "stateMutability": "nonpayable",
      "type": "constructor"
    },
    {
      "payable": false,
      "stateMutability": "nonpayable",
      "type": "fallback"
    }
  ],
  "bytecode": "0x60606040526000600155341561001457600080fd5b336000806101000a81548173ffffffffffffffffffffffffffffffffffffffff021916908373ffffffffffffffffffffffffffffffffffffffff16021790555061058e806100636000396000f300606060405260043610610062576000357c0100000000000000000000000000000000000000000000000000000000900463ffffffff1680633ccfd60b1461007257806349c5f8c6146100875780638da5cb5b146100b3578063f95812c414610108575b341561006d57600080fd5b600080fd5b341561007d57600080fd5b610085610120565b005b341561009257600080fd5b6100b1600480803590602001909190803590602001909190505061017d565b005b34156100be57600080fd5b6100c66102c6565b604051808273ffffffffffffffffffffffffffffffffffffffff1673ffffffffffffffffffffffffffffffffffffffff16815260200191505060405180910390f35b61011e60048080359060200190919050506102eb565b005b6000809054906101000a900473ffffffffffffffffffffffffffffffffffffffff1673ffffffffffffffffffffffffffffffffffffffff163373ffffffffffffffffffffffffffffffffffffffff1614151561017b57600080fd5b565b60008060009054906101000a900473ffffffffffffffffffffffffffffffffffffffff1673ffffffffffffffffffffffffffffffffffffffff163373ffffffffffffffffffffffffffffffffffffffff161415156101da57600080fd5b6001805401816000018190555082816002018190555081816004018190555060008160050160006101000a81548160ff0219169083600281111561021a57fe5b02179055506002805480600101828161023391906103c6565b916000526020600020906006020160008390919091506000820154816000015560018201816001019080546102699291906103f8565b506002820154816002015560038201548160030155600482015481600401556005820160009054906101000a900460ff168160050160006101000a81548160ff021916908360028111156102b957fe5b0217905550505050505050565b6000809054906101000a900473ffffffffffffffffffffffffffffffffffffffff1681565b60036000828152602001908152602001600020600401543414151561030f57600080fd5b6003600082815260200190815260200160002060020154600360008381526020019081526020016000206001018054905010151561034c57600080fd5b600360008281526020019081526020016000206001018054806001018281610374919061044a565b9160005260206000209001600033909190916101000a81548173ffffffffffffffffffffffffffffffffffffffff021916908373ffffffffffffffffffffffffffffffffffffffff1602179055505050565b8154818355818115116103f3576006028160060283600052602060002091820191016103f29190610476565b5b505050565b8280548282559060005260206000209081019282156104395760005260206000209182015b8281111561043857825482559160010191906001019061041d565b5b50905061044691906104d9565b5090565b81548183558181151161047157818360005260206000209182019101610470919061051c565b5b505050565b6104d691905b808211156104d25760008082016000905560018201600061049d9190610541565b6002820160009055600382016000905560048201600090556005820160006101000a81549060ff02191690555060060161047c565b5090565b90565b61051991905b8082111561051557600081816101000a81549073ffffffffffffffffffffffffffffffffffffffff0219169055506001016104df565b5090565b90565b61053e91905b8082111561053a576000816000905550600101610522565b5090565b90565b508054600082559060005260206000209081019061055f919061051c565b505600a165627a7a72305820bb299290456e5a9fd45e90f1ee00baf9c7336b38d0b73643cefb2591c1c1eb250029",
  "source": "pragma solidity ^0.4.17;\n\ncontract Game {\n\n    address public owner;\n\n    uint256 counter = 0; //what, just do length bro\n\n    struct Session {\n        uint256 id;\n        address[] slots;\n        uint256 playersN;\n        uint256 winnerN; //may be needless\n        uint betValue;\n        SessionState currentState;\n    }\n//massive addressov\n    Session[] sessions;     //something like this, both need to be controlled for overflow\n    mapping(uint256 => Session) sessionsM;\n\n    //mapping of struct and var numStructs\n    enum SessionState {noGame, gameStarted, gameEnded}\n\n    modifier ownerOnly {\n        if (msg.sender != owner) \n        revert();\n        _;\n    }\n\n    function Game() public {\n        owner = msg.sender;\n    }\n\n    function InitializeSession(uint256 plN,/*players massive*/ uint betV) ownerOnly public {\n        Session session;\n        session.id = counter + 1;\n        session.playersN = plN;\n        session.betValue = betV;\n        session.currentState = SessionState.noGame;\n        sessions.push(session);\n    }\n\n    function EnterSession(uint256 id) payable public {\n        require(msg.value == sessionsM[id].betValue);\n        require(sessionsM[id].slots.length < sessionsM[id].playersN);\n        sessionsM[id].slots.push(msg.sender);\n        //Round has limit of players\n        //Take their money\n        //Check how much are they paying\n        //Check if they entering through the game and not scamming (how?)\n    }\n\n    function withdraw() ownerOnly public {\n        //Pay the winner his winnings\n    }\n\n    //function refund half if player disconnected before the start\n\n    function () {\n        revert();\n    }\n}",
  "sourcePath": "/home/andrew/truffleTest/project/contracts/Game.sol",
  "compiler": {
    "name": "solc",
    "version": "0.4.18+commit.9cf6e910.Emscripten.clang"
  },
  "schemaVersion": "1.0.1",
  "updatedAt": "2018-02-13T16:12:11.998Z"
}