{
  "contractName": "Game",
  "abi": [
    {
      "constant": false,
      "inputs": [
        {
          "name": "plN",
          "type": "uint256"
        },
        {
          "name": "betV",
          "type": "uint256"
        }
      ],
      "name": "InitializeSession",
      "outputs": [],
      "payable": false,
      "stateMutability": "nonpayable",
      "type": "function"
    },
    {
      "constant": false,
      "inputs": [],
      "name": "refund",
      "outputs": [],
      "payable": false,
      "stateMutability": "nonpayable",
      "type": "function"
    },
    {
      "constant": true,
      "inputs": [],
      "name": "owner",
      "outputs": [
        {
          "name": "",
          "type": "address"
        }
      ],
      "payable": false,
      "stateMutability": "view",
      "type": "function"
    },
    {
      "constant": false,
      "inputs": [
        {
          "name": "sessionId",
          "type": "uint256"
        },
        {
          "name": "winner",
          "type": "address"
        },
        {
          "name": "reward",
          "type": "uint256"
        }
      ],
      "name": "withdraw",
      "outputs": [],
      "payable": false,
      "stateMutability": "nonpayable",
      "type": "function"
    },
    {
      "constant": false,
      "inputs": [
        {
          "name": "id",
          "type": "uint256"
        }
      ],
      "name": "EnterSession",
      "outputs": [],
      "payable": true,
      "stateMutability": "payable",
      "type": "function"
    },
    {
      "inputs": [],
      "payable": false,
      "stateMutability": "nonpayable",
      "type": "constructor"
    },
    {
      "payable": false,
      "stateMutability": "nonpayable",
      "type": "fallback"
    }
  ],
  "bytecode": "0x60606040526000600155341561001457600080fd5b336000806101000a81548173ffffffffffffffffffffffffffffffffffffffff021916908373ffffffffffffffffffffffffffffffffffffffff1602179055506107f7806100636000396000f30060606040526004361061006d576000357c0100000000000000000000000000000000000000000000000000000000900463ffffffff16806349c5f8c61461007d578063590e1ae3146100a95780638da5cb5b146100be578063e63697c814610113578063f95812c41461015e575b341561007857600080fd5b600080fd5b341561008857600080fd5b6100a76004808035906020019091908035906020019091905050610176565b005b34156100b457600080fd5b6100bc6102bf565b005b34156100c957600080fd5b6100d161031c565b604051808273ffffffffffffffffffffffffffffffffffffffff1673ffffffffffffffffffffffffffffffffffffffff16815260200191505060405180910390f35b341561011e57600080fd5b61015c600480803590602001909190803573ffffffffffffffffffffffffffffffffffffffff16906020019091908035906020019091905050610341565b005b610174600480803590602001909190505061052c565b005b60008060009054906101000a900473ffffffffffffffffffffffffffffffffffffffff1673ffffffffffffffffffffffffffffffffffffffff163373ffffffffffffffffffffffffffffffffffffffff161415156101d357600080fd5b6001805401816000018190555082816002018190555081816004018190555060008160050160006101000a81548160ff0219169083600281111561021357fe5b02179055506002805480600101828161022c919061062f565b91600052602060002090600602016000839091909150600082015481600001556001820181600101908054610262929190610661565b506002820154816002015560038201548160030155600482015481600401556005820160009054906101000a900460ff168160050160006101000a81548160ff021916908360028111156102b257fe5b0217905550505050505050565b6000809054906101000a900473ffffffffffffffffffffffffffffffffffffffff1673ffffffffffffffffffffffffffffffffffffffff163373ffffffffffffffffffffffffffffffffffffffff1614151561031a57600080fd5b565b6000809054906101000a900473ffffffffffffffffffffffffffffffffffffffff1681565b6000809054906101000a900473ffffffffffffffffffffffffffffffffffffffff1673ffffffffffffffffffffffffffffffffffffffff163373ffffffffffffffffffffffffffffffffffffffff1614151561039c57600080fd5b6002838154811015156103ab57fe5b90600052602060002090600602016001016002848154811015156103cb57fe5b9060005260206000209060060201600301548154811015156103e957fe5b906000526020600020900160009054906101000a900473ffffffffffffffffffffffffffffffffffffffff1673ffffffffffffffffffffffffffffffffffffffff168273ffffffffffffffffffffffffffffffffffffffff1614151561044e57600080fd5b6001600281111561045b57fe5b60028481548110151561046a57fe5b906000526020600020906006020160050160009054906101000a900460ff16600281111561049457fe5b1415156104a057600080fd5b6002808111156104ac57fe5b6002848154811015156104bb57fe5b906000526020600020906006020160050160009054906101000a900460ff1660028111156104e557fe5b50508173ffffffffffffffffffffffffffffffffffffffff166108fc829081150290604051600060405180830381858888f19350505050151561052757600080fd5b505050565b60028181548110151561053b57fe5b9060005260206000209060060201600401543414151561055a57600080fd5b60028181548110151561056957fe5b90600052602060002090600602016002015460028281548110151561058a57fe5b9060005260206000209060060201600101805490501015156105ab57600080fd5b6002818154811015156105ba57fe5b906000526020600020906006020160010180548060010182816105dd91906106b3565b9160005260206000209001600033909190916101000a81548173ffffffffffffffffffffffffffffffffffffffff021916908373ffffffffffffffffffffffffffffffffffffffff1602179055505050565b81548183558181151161065c5760060281600602836000526020600020918201910161065b91906106df565b5b505050565b8280548282559060005260206000209081019282156106a25760005260206000209182015b828111156106a1578254825591600101919060010190610686565b5b5090506106af9190610742565b5090565b8154818355818115116106da578183600052602060002091820191016106d99190610785565b5b505050565b61073f91905b8082111561073b5760008082016000905560018201600061070691906107aa565b6002820160009055600382016000905560048201600090556005820160006101000a81549060ff0219169055506006016106e5565b5090565b90565b61078291905b8082111561077e57600081816101000a81549073ffffffffffffffffffffffffffffffffffffffff021916905550600101610748565b5090565b90565b6107a791905b808211156107a357600081600090555060010161078b565b5090565b90565b50805460008255906000526020600020908101906107c89190610785565b505600a165627a7a7230582093483cafb92df36297d38a7cbfd44dec21fa9b03afc7cbb2a33d97b01c78b2f80029",
  "source": "pragma solidity ^0.4.17;\n\ncontract Game {\n\n    address public owner;\n\n    uint256 counter = 0; //what, just do length bro\n\n    struct Session {\n        uint256 id;\n        address[] slots;\n        uint256 playersN;\n        uint256 winnerN; \n        uint betValue;\n        SessionState currentState;\n    }\n    //address array\n    Session[] sessions;     //something like this, need to be controlled for overflow\n\n    //mapping of struct and var numStructs\n    enum SessionState {noGame, gameStarted, gameClosed}\n\n    modifier ownerOnly {\n        if (msg.sender != owner) \n        revert();\n        _;\n    }\n\n    function Game() public {\n        owner = msg.sender;\n    }\n\n    function InitializeSession(uint256 plN, uint betV) ownerOnly public {\n        Session session;\n        session.id = counter + 1;\n        session.playersN = plN;\n        session.betValue = betV;\n        session.currentState = SessionState.noGame;\n        sessions.push(session);\n    }\n\n    function EnterSession(uint256 id) payable public {\n        require(msg.value == sessions[id].betValue);\n        require(sessions[id].slots.length < sessions[id].playersN);\n        sessions[id].slots.push(msg.sender);\n        //Check if they entering through the game and not scamming (how?)\n    }\n\n    function withdraw(uint256 sessionId, address winner, uint reward) ownerOnly public {\n        //Pay the winner his winnings\n        require(winner == sessions[sessionId].slots[sessions[sessionId].winnerN]);  //oh looks nice\n        require(sessions[sessionId].currentState == SessionState.gameStarted);\n        sessions[sessionId].currentState == SessionState.gameClosed;\n        winner.transfer(reward);\n    }\n\n    function refund() ownerOnly {\n        //refund if disconnected before the match\n    }\n\n    //need functions setters or whatever to start the game and point the winner\n\n    function () {\n        revert();\n    }\n}",
  "sourcePath": "/home/andrew/truffleTest/Dethereum/contracts/Game.sol",
  "compiler": {
    "name": "solc",
    "version": "0.4.18+commit.9cf6e910.Emscripten.clang"
  },
  "schemaVersion": "1.0.1",
  "updatedAt": "2018-03-20T06:32:20.672Z"
}